:100000000EC028C027C026C025C024C023C022C0DF
:1000100021C020C01FC01EC01DC01CC01BC0112499
:100020001FBECFE5D2E0DEBFCDBF10E0A0E6B0E05E
:10003000EAE0F3E002C005900D92AE37B107D9F7C0
:1000400010E0AEE7B0E001C01D92A438B107E1F7BF
:1000500032D159C1D5CF613071F44FB7F89497B30D
:1000600021E030E0082E01C0220F0A94EAF7922B1B
:1000700097BB4FBF08959FB7F89447B321E030E096
:10008000082E01C0220F0A94EAF72095242327BBEB
:100090009FBF089596B321E030E002C0220F331FC6
:1000A0008A95E2F7892F90E02823392381E0232BDA
:1000B00009F480E00895613071F44FB7F89498B373
:1000C00021E030E0082E01C0220F0A94EAF7922BBB
:1000D00098BB4FBF08959FB7F89448B321E030E034
:1000E000082E01C0220F0A94EAF72095242328BB8A
:1000F0009FBF089598B321E030E0082E01C0220F81
:100100000A94EAF7922798BB0895833039F0843037
:1001100021F0823029F481E001C082E087B901C07A
:1001200017B8379A369A3699FECF84B125B190E048
:10013000922B0895CF93DF93C82FD62F61E08BDFEA
:10014000C11105C08AB580688ABDD9BD06C0C1305D
:1001500021F48AB580628ABDD8BDDF91CF91089520
:1001600023B7287F23BF80349105A9F030F4813074
:10017000910559F0089761F00895811521E09207E3
:1001800069F08115944069F0089583B781600BC0D0
:1001900083B7826008C083B7836005C083B784607B
:1001A00002C083B7856083BF08952AB52C7F2ABD1E
:1001B00023B7277F23BF8330910599F030F4813036
:1001C000910549F0029751F008958430910569F046
:1001D000059771F008958AB5816005C08AB582607F
:1001E00002C08AB583608ABD08958AB5816002C065
:1001F0008AB583608ABD83B7886083BF089521B5BF
:10020000287D21BD8034910551F168F48830910535
:1002100079F118F4049779F108958031910529F165
:10022000809701F10895811521E0920791F020F463
:100230008038910589F00895811522E0920731F008
:1002400081159440D9F481B5816217C081B580626F
:1002500014C081B5876011C081B586600EC081B5BC
:1002600085600BC081B5846008C081B5836005C01E
:1002700081B5826002C081B5816081BD08958FEF34
:1002800008950895FC012191CF012111FBCF08951C
:100290008FEF9FEF089580E090E0089582E690E070
:1002A00090937F0080937E0080E790E090938100A0
:1002B00080938000089561E080E0CDDE60E080E022
:1002C000FADE2091600030916100C90181709927A8
:1002D0009195819591098827947B3695279582275A
:1002E0009327909361008093600080FF02C061E0DB
:1002F00001C060E080E0DFDE8FE493EC0197F1F76E
:0A03000000C00000DECFF894FFCF2C
:10030A000C0000000001000000004801000000008D
:0E031A0000000002000000004B010000000087
:00000001FF
